:100000000C9468000C9490000C9490000C949B034A
:100010000C9490000C9490000C9490000C94900020
:100020000C9490000C9490000C9490000C94900010
:100030000C9490000C9490000C9490000C94900000
:100040000C94F9020C9490000C9469030C944303F3
:100050000C9490000C9490000C9490000C949000E0
:100060000C9490000C94900008067A054C054F05FE
:1000700055057A0585054F058805AD05050600007F
:100080000000240027002A000000000025002800AE
:100090002B00040404040404040402020202020209
:1000A000030303030303010204081020408001023C
:1000B00004081020010204081020000000080002BB
:1000C0000100000304070000000000000000C1035D
:1000D00011241FBECFEFD8E0DEBFCDBF11E0A0E0FE
:1000E000B1E0E8EEFDE002C005900D92A034B1074A
:1000F000D9F721E0A0E4B1E001C01D92AB3FB20707
:10010000E1F710E0C8E6D0E004C02197FE010E94AC
:10011000E706C736D107C9F70E9419040C94F20606
:100120000C94000090E0FC01E654FF4F2491FC0188
:10013000EA55FF4F3491FC01EE56FF4FE491EE2358
:1001400009F43CC0222339F1233091F038F42130F6
:10015000A9F0223001F584B58F7D12C0273091F0CF
:100160002830A1F02430B9F4809180008F7D03C045
:10017000809180008F77809380000DC084B58F7749
:1001800084BD09C08091B0008F7703C08091B0001A
:100190008F7D8093B000F0E0EE0FFF1FE857FF4F18
:1001A000A591B4919FB7F894611104C08C913095DA
:1001B000382302C0EC913E2B3C939FBF0895CF9310
:1001C000DF9390E0FC01EA55FF4F2491FC01EE56CD
:1001D000FF4F8491882361F190E0880F991FFC0103
:1001E000E258FF4FC591D491FC01E857FF4FA5910C
:1001F000B491611109C09FB7F8948881209582233A
:100200008883EC912E230BC0623061F49FB7F89481
:100210008881322F309583238883EC912E2B2C9369
:100220009FBF06C08FB7F894E8812E2B28838FBF1D
:10023000DF91CF9108953FB7F8948091510190914B
:100240005201A0915301B091540126B5A89B05C05D
:100250002F3F19F00196A11DB11D3FBFBA2FA92F45
:10026000982F8827820F911DA11DB11DBC01CD01C2
:1002700042E0660F771F881F991F4A95D1F70895AE
:100280008F929F92AF92BF92CF92DF92EF92FF92A6
:100290006B017C010E941B014B015C01C114D10464
:1002A000E104F104F1F00E941B01DC01CB0188198B
:1002B0009909AA09BB09883E9340A105B10570F3CD
:1002C00021E0C21AD108E108F10888EE880E83E027
:1002D000981EA11CB11CC114D104E104F10419F74A
:1002E000DDCFFF90EF90DF90CF90BF90AF909F90C9
:1002F0008F9008952FB7F89460914D0170914E0141
:1003000080914F01909150012FBF0895CF92DF92BD
:10031000EF92FF920F931F93CF93DF936C017A01BB
:100320008B01C0E0D0E0CE15DF0581F0D8016D91E2
:100330008D01D601ED91FC910190F081E02DC60177
:100340000995892B11F02196EECF7E01C701DF912F
:10035000CF911F910F91FF90EF90DF90CF90089574
:10036000089580E090E00895FC01538D448D252F81
:1003700030E0842F90E0821B930B541710F0CF963F
:10038000089501970895FC01918D828D981761F071
:10039000828DDF01A80FB11D5D968C91928D9F5FBC
:1003A0009F73928F90E008958FEF9FEF0895FC0167
:1003B000918D828D981731F0828DE80FF11D858D1A
:1003C00090E008958FEF9FEF0895FC01918D228DAD
:1003D000892F90E0805C9F4F821B91098F73992732
:1003E000089585E591E00E94E50121E0892B09F45B
:1003F00020E0822F0895FC01848DDF01A80FB11D3C
:10040000A35ABF4F2C91848D90E001968F7399274A
:10041000848FA689B7892C93A089B1898C91837028
:1004200080648C93938D848D981306C00288F38921
:10043000E02D80818F7D80830895EF92FF920F934E
:100440001F93CF93DF93EC0181E0888F9B8D8C8D80
:10045000981305C0E889F989808185FD26C0F62EAC
:100460000B8D10E00F5F1F4F0F731127E02E8C8D47
:10047000E8120CC00FB607FCFACFE889F989808131
:1004800085FFF5CFCE010E94FB01F1CF8B8DFE01E0
:10049000E80FF11DE35AFF4FF0829FB7F8940B8FDE
:1004A000EA89FB89808180620AC09FB7F894EE894F
:1004B000FF896083E889F989808183708064808303
:1004C0009FBF81E090E0DF91CF911F910F91FF904E
:1004D000EF900895CF93DF93EC01888D8823C9F0C6
:1004E000EA89FB89808185FD05C0A889B9898C913D
:1004F00086FD0FC00FB607FCF5CF808185FFF2CFD8
:10050000A889B9898C9185FFEDCFCE010E94FB01AE
:10051000E7CFDF91CF91089580E090E0892B29F01B
:100520000E94F10181110C9400000895009769F078
:10053000FC0101900020E9F73197AF01481B590BEE
:10054000BC0185E591E00C94860180E090E008957F
:10055000CF93DF930E949602EC0182E191E00E942A
:1005600096028C0F9D1FDF91CF9108958F929F92DD
:10057000AF92BF920F931F93CF93DF93CDB7DEB7A8
:10058000A1970FB6F894DEBF0FBECDBF19A24230BF
:1005900008F44AE08E010F5D1F4F842E912CA12C90
:1005A000B12CA50194010E94C506E62FB901CA012C
:1005B00001501109EA3014F4E05D01C0E95CD80192
:1005C000EC93232B242B252B61F7C8010E94960264
:1005D000A1960FB6F894DEBF0FBECDBFDF91CF91CD
:1005E0001F910F91BF90AF909F908F9008950E94A0
:1005F000ED061F920F920FB60F9211242F933F9387
:100600008F939F93AF93BF9380914D0190914E0133
:10061000A0914F01B091500130914C0123E0230F84
:100620002D3720F40196A11DB11D05C026E8230F2A
:100630000296A11DB11D20934C0180934D01909312
:100640004E01A0934F01B0935001809151019091C0
:100650005201A0915301B09154010196A11DB11D09
:100660008093510190935201A0935301B093540190
:10067000BF91AF919F918F913F912F910F900FBE9E
:100680000F901F9018951F920F920FB60F92112482
:100690002F933F934F935F936F937F938F939F938A
:1006A000AF93BF93EF93FF9385E591E00E94FB0129
:1006B000FF91EF91BF91AF919F918F917F916F913A
:1006C0005F914F913F912F910F900FBE0F901F9010
:1006D00018951F920F920FB60F9211242F938F939C
:1006E0009F93EF93FF93E0916501F0916601808104
:1006F000E0916B01F0916C0182FD12C090818091BC
:100700006E018F5F8F7320916F01821751F0E0911E
:100710006E01F0E0EB5AFE4F958F80936E0101C0A1
:100720008081FF91EF919F918F912F910F900FBE3C
:100730000F901F9018951F920F920FB60F921124D1
:100740008F939F93AF93BF93189B12C080E596E45D
:10075000A0E0B0E08093F2019093F301A093F40144
:10076000B093F5011092F60195B180E2892785B921
:10077000BF91AF919F918F910F900FBE0F901F90DF
:1007800018950F931F93CF93DF93E5E5F1E0138264
:10079000128288EE93E0A0E0B0E084839583A68384
:1007A000B78384E091E09183808385EC90E0958726
:1007B000848784EC90E09787868780EC90E0918B2B
:1007C000808B81EC90E0938B828B82EC90E0958B18
:1007D000848B86EC90E0978B868B118E128E138E15
:1007E000148EC2EFD1E080E596E4A0E0B0E088830B
:1007F0009983AA83BB831C8202E00F8313E01887CE
:1008000060E08CE00E94DF0061E08CE00E949200DA
:1008100060E082E00E94DF0060E083E00E94DF0091
:100820008CE08E830F831887DF91CF911F910F91FA
:100830000895789484B5826084BD84B5816084BD58
:1008400085B5826085BD85B5816085BD80916E006E
:10085000816080936E00109281008091810082609F
:1008600080938100809181008160809381008091DC
:1008700080008160809380008091B10084608093CB
:10088000B1008091B00081608093B00080917A00C7
:10089000846080937A0080917A00826080937A00ED
:1008A00080917A00816080937A0080917A008068DC
:1008B00080937A001092C100E0916501F091660189
:1008C00082E08083E0916101F09162011082E09109
:1008D0006301F091640187E6808310926D01E091DD
:1008E0006901F0916A0186E08083E0916701F091EF
:1008F0006801808180618083E0916701F0916801E7
:10090000808188608083E0916701F0916801808137
:1009100080688083E0916701F091680180818F7D1C
:1009200080838091680081608093680080916B0073
:10093000816080936B00259AC1E0D7E013E000E26C
:1009400060E5C62E66E4D62EE12CF12C0E947A01D9
:100950008090480190904901A0904A01B0904B01CD
:10096000DC01CB0188199909AA09BB090B97A105DC
:10097000B105B8F10E947A01609348017093490172
:1009800080934A0190934B018091F2019091F30181
:10099000A091F401B091F5010097A105B10559F0BE
:1009A0000197A109B1098093F2019093F301A093FB
:1009B000F401B093F5018091F2019091F301A091BF
:1009C000F401B091F5010197A105B10551F4C0936F
:1009D000F6011092F2011092F3011092F4011092BC
:1009E000F5010E947A018090440190904501A09009
:1009F0004601B0904701DC01CB0188199909AA0989
:100A0000BB09893E9340A105B105C8F00E947A0157
:100A10006093440170934501809346019093470190
:100A20006091F2017091F3018091F4019091F501D0
:100A30004AE00E94B60282E191E00E9496020E9482
:100A40007A018090400190904101A0904201B090C5
:100A50004301DC01CB0188199909AA09BB09853F2B
:100A60009140A105B10508F4DCC00E947A016093B1
:100A70004001709341018093420190934301209182
:100A8000F601822F90E08B30910508F0C7C0FC0181
:100A9000EC5CFF4F0C94E7061093F601C2C060E0D7
:100AA0008091F9010E94DF006AC18FE191E00E940C
:100AB000A80254E6852E912CA12CB12C81E0881A35
:100AC0009108A108B1082FEF82169206A206B2067D
:100AD00009F455C168EE73E080E090E00E944001A7
:100AE0004AE0C501B4010E94B60285E391E00E948C
:100AF000A802E4CF85E191E00E94A80260E0809125
:100B0000F9010E94920061E0CBCFD093F60189C039
:100B10008FE191E00E94A80244E6842E912CA12C42
:100B2000B12C81E0881A9108A108B1082FEF821634
:100B30009206A206B20609F422C168EE73E080E0D4
:100B400090E00E9440014AE0C501B4010E94B60253
:100B500085E391E00E94A802E4CF60E08091FA0171
:100B60000E94920061E08091FA010E94DF008BE216
:100B700091E00E94A80235E0832E912CA12CB12C8B
:100B800081E0881A9108A108B1082FEF8216920619
:100B9000A206B20681F068EE73E080E090E00E9469
:100BA00040014AE0C501B4010E94B60285E391E02C
:100BB0000E94A802E5CF60E08091FA010E94DF0068
:100BC00087E391E00E94A80228EC822E912CA12CB0
:100BD000B12C81E0881A9108A108B1082FEF821684
:100BE0009206A206B20609F4CAC068EE73E080E07D
:100BF00090E00E9440014AE0C501B4010E94B602A3
:100C000085E391E00E94A802E4CFC093F60109C0F9
:100C100060E08091F9010E94DF0003C02F5F209304
:100C2000F60185E591E00E94E501892B09F4A4C055
:100C300085E591E00E94C301813469F4C092F2011C
:100C4000D092F301E092F401F092F5011092F601D6
:100C500085B180278FC08237F1F585E191E00E9450
:100C6000A80260E08091F9010E94920061E0809109
:100C7000F9010E94DF006CE271E080E090E00E94E8
:100C8000400160E08091F9010E94DF008FE191E076
:100C90000E94A80294E6892E912CA12CB12C81E00F
:100CA000881A9108A108B1082FEF82169206A206B1
:100CB000B20609F4B6CF68EE73E080E090E00E94DF
:100CC00040014AE0C501B4010E94B60285E391E00B
:100CD0000E94A802E4CF8037F1F560E08091FA012C
:100CE0000E94920061E08091FA010E94DF008BE295
:100CF00091E00E94A80268E873E180E090E00E9421
:100D0000400160E08091FA010E94DF008FE191E0F4
:100D10000E94A80284E6882E912CA12CB12C81E09F
:100D2000881A9108A108B1082FEF82169206A20630
:100D3000B20609F476CF68EE73E080E090E00E949E
:100D400040014AE0C501B4010E94B60285E391E08A
:100D50000E94A802E4CF803209F063CFC092F20172
:100D6000D092F301E092F401F092F5011092F601B5
:100D700095B1892785B955CF0E948C02E7CD809126
:100D8000F6018F5F8093F6014CCFA1E21A2EAA1BC9
:100D9000BB1BFD010DC0AA1FBB1FEE1FFF1FA2172B
:100DA000B307E407F50720F0A21BB30BE40BF50B28
:100DB000661F771F881F991F1A9469F760957095B1
:100DC000809590959B01AC01BD01CF010895EE0F78
:100DD000FF1F0590F491E02D099481E090E0F894D4
:080DE0000C94F206F894FFCF19
:100DE800000000001D028601B4016A02E501C3018A
:100DF800D7010D0A005265736574696E6721004456
:100E0800656C6179696E672E2E2E00506F7765725A
:100E1800204F4646007300506F776572204F4E0092
:107800000C94343C0C94513C0C94513C0C94513CE1
:107810000C94513C0C94513C0C94513C0C94513CB4
:107820000C94513C0C94513C0C94513C0C94513CA4
:107830000C94513C0C94513C0C94513C0C94513C94
:107840000C94513C0C94513C0C94513C0C94513C84
:107850000C94513C0C94513C0C94513C0C94513C74
:107860000C94513C0C94513C11241FBECFEFD8E036
:10787000DEBFCDBF11E0A0E0B1E0ECE9FFE702C060
:1078800005900D92A230B107D9F712E0A2E0B1E065
:1078900001C01D92AD30B107E1F70E942D3D0C945F
:1078A000CC3F0C94003C982F959595959595959582
:1078B000905D8F708A307CF0282F295A8091C0000B
:1078C00085FFFCCF9093C6008091C00085FFFCCF60
:1078D0002093C6000895282F205DF0CF982F809127
:1078E000C00085FFFCCF9093C6000895EF92FF92F1
:1078F0000F931F93EE24FF2487018091C00087FD22
:1079000017C00894E11CF11C011D111D81E4E8164B
:1079100082E4F8068FE0080780E0180770F3E09132
:107920000401F091050109958091C00087FFE9CF1E
:107930008091C6001F910F91FF90EF9008950E94D3
:10794000763C982F8091C00085FFFCCF9093C600B5
:1079500091362CF490330CF09053892F089597555D
:10796000892F08951F930E949F3C182F0E949F3CCF
:107970001295107F810F1F9108951F93182F882350
:1079800021F00E94763C1150E1F71F9108951F935A
:10799000182F0E94763C803249F0809103018F5F5E
:1079A000809303018530C1F01F9108958091C0003C
:1079B00085FFFCCF84E18093C6008091C00085FFE5
:1079C000FCCF1093C6008091C00085FFFCCF80E102
:1079D0008093C6001F910895E0910401F091050184
:1079E00009951F9108950E94763C803241F0809164
:1079F00003018F5F80930301853081F008958091AA
:107A0000C00085FFFCCF84E18093C6008091C00058
:107A100085FFFCCF80E18093C6000895E0910401CA
:107A2000F09105010995089540E951E08823A1F0FE
:107A30002D9A28EE33E0FA013197F1F721503040CA
:107A4000D1F72D9828EE33E0FA013197F1F7215064
:107A50003040D1F7815061F708953F924F925F9285
:107A60006F927F928F929F92AF92BF92CF92DF924E
:107A7000EF92FF920F931F93CF93DF93000080E16B
:107A80008093C4001092C50088E18093C10086E015
:107A90008093C2005098589A259A81E00E94143D24
:107AA00024E1F22E9EE1E92E85E9D82E0FE0C02ECA
:107AB00010E1B12EAA24A394B1E49B2EA6E58A2E50
:107AC000F2E57F2EE0E26E2E79E4572E63E5462E36
:107AD00050E5352E0E94763C8033B1F18133B9F107
:107AE000803409F46FC0813409F476C0823409F41B
:107AF00085C0853409F488C0803531F1823521F1A3
:107B0000813511F1853509F485C0863509F48DC0BC
:107B1000843609F496C0843709F403C1853709F423
:107B200072C1863709F466C0809103018F5F80932C
:107B30000301853079F6E0910401F0910501099582
:107B40000E94763C803351F60E94F33CC3CF0E94E2
:107B5000763C803249F78091C00085FFFCCFF092DF
:107B6000C6008091C00085FFFCCF9092C600809136
:107B7000C00085FFFCCF8092C6008091C00085FFC9
:107B8000FCCF7092C6008091C00085FFFCCF609250
:107B9000C6008091C00085FFFCCF5092C600809146
:107BA000C00085FFFCCF4092C6008091C00085FFD9
:107BB000FCCF3092C6008091C00085FFFCCFB09210
:107BC000C60088CF0E94763C863808F4BDCF0E945C
:107BD000763C0E94F33C7ECF0E94763C803809F4CC
:107BE0009CC0813809F40BC1823809F43CC1883942
:107BF00009F48FC080E00E94C73C6CCF84E10E94F2
:107C0000BD3C0E94F33C66CF85E00E94BD3C0E94D3
:107C1000F33C60CF0E94763C809306010E94763C44
:107C2000809307010E94F33C55CF0E94763C80333D
:107C300009F41DC183E00E94BD3C80E00E94C73C66
:107C400049CF0E94763C809309020E94763C809343
:107C5000080280910C028E7F80930C020E94763C79
:107C6000853409F415C18091080290910902892B8D
:107C700089F000E010E00E94763CF801E85FFE4FDA
:107C800080830F5F1F4F80910802909109020817AF
:107C9000190788F30E94763C803209F045CF809125
:107CA0000C0280FF01C16091060170910701660F0F
:107CB000771F7093070160930601A0910802B091AD
:107CC00009021097C9F0E8E0F1E09B01AD014E0F09
:107CD0005F1FF999FECF32BD21BD819180BDFA9A17
:107CE000F99A2F5F3F4FE417F50799F76A0F7B1F4B
:107CF00070930701609306018091C00085FFFCCF5F
:107D0000F092C6008091C00085FFFCCFB092C60003
:107D1000E1CE83E00E94C73CDDCE82E00E94C73CFA
:107D2000D9CE0E94763C809309020E94763C8093D3
:107D300008028091060190910701880F991F909386
:107D40000701809306010E94763C853409F4A6C0A1
:107D500080910C028E7F80930C020E94763C8032D0
:107D600009F0B8CE8091C00085FFFCCFF092C6002C
:107D7000609108027091090261157105B9F140E046
:107D800050E080910C02A82FA170B82FB27011C0E2
:107D9000BB2309F45CC0E0910601F0910701319624
:107DA000F0930701E09306014F5F5F4F46175707B7
:107DB000E8F4AA2369F3F999FECF209106013091E6
:107DC000070132BD21BDF89A90B58091C00085FFB2
:107DD000FCCF9093C6002F5F3F4F30930701209355
:107DE00006014F5F5F4F4617570718F38091C00099
:107DF00085FDE5CE8091C00085FFF8CFE0CE81E023
:107E00000E94C73C67CE0E94763C803209F08CCE3F
:107E10008091C00085FFFCCFF092C6008091C00029
:107E200085FFFCCFE092C6008091C00085FFFCCFAB
:107E3000D092C6008091C00085FFFCCFC092C600E2
:107E40008091C00085FFFCCFB092C60043CEE09188
:107E50000601F091070194918091C00085FFFCCF4D
:107E60009093C6009CCF80E10E94C73C33CE0E9415
:107E7000763C0E94763C182F0E94763C112309F430
:107E800083C0113009F484C08FE00E94C73C22CE29
:107E900080910C02816080930C02E5CE80910C02EF
:107EA000816080930C0259CF809107018823880F4D
:107EB000880B8A2180930B02809106019091070123
:107EC000880F991F90930701809306018091080203
:107ED00080FF09C080910802909109020196909359
:107EE000090280930802F894F999FECF1127E091D6
:107EF0000601F0910701C8E0D1E08091080290915D
:107F00000902103091F40091570001700130D9F34B
:107F100003E000935700E89500915700017001308D
:107F2000D9F301E100935700E89509901990009169
:107F3000570001700130D9F301E000935700E89534
:107F40001395103498F011270091570001700130FB
:107F5000D9F305E000935700E895009157000170B0
:107F60000130D9F301E100935700E895329602976A
:107F700009F0C7CF103011F00296E5CF112480919F
:107F8000C00085FFB9CEBCCE8EE10E94C73CA2CD19
:0C7F900085E90E94C73C9ECDF894FFCF0D
:027F9C00800063
:040000030000780081
:00000001FF
